:0400000007EF00F016
:0A000800428201ED08F054EF09F008
:1010000000000600F2A807EF08F009EF08F012EF61
:1010100008F0F2A20EEF08F010EF08F012EF08F05F
:10102000CBEC09F0F0A617EF08F019EF08F022EF6B
:1010300008F0F0A01EEF08F020EF08F022EF08F013
:10104000C9EC09F0F0A827EF08F029EF08F032EF1B
:1010500008F0F0A22EEF08F030EF08F032EF08F0C1
:10106000C7EC09F0F2A637EF08F039EF08F054EFBB
:1010700008F0F2A03EEF08F040EF08F054EF08F05F
:1010800081A845EF08F047EF08F054EF08F022047C
:10109000D8A44DEF08F04FEF08F054EF08F0000E21
:1010A000226E000EA9EC09F0F2A659EF08F05BEFF2
:1010B00008F076EF08F0F2A060EF08F062EF08F0B9
:1010C00076EF08F081B867EF08F069EF08F076EF87
:1010D00008F02250D8A46FEF08F071EF08F076EF17
:1010E00008F0010E226E010EA9EC09F0F2A67BEFCA
:1010F00008F07DEF08F098EF08F0F2A082EF08F01A
:1011000084EF08F098EF08F081AA89EF08F08BEFE0
:1011100008F098EF08F02104D8A491EF08F093EFBD
:1011200008F098EF08F0000E216E000E9CEC09F01C
:10113000F2A69DEF08F09FEF08F0BAEF08F0F2A0DA
:10114000A4EF08F0A6EF08F0BAEF08F081BAABEF11
:1011500008F0ADEF08F0BAEF08F02150D8A4B3EFD3
:1011600008F0B5EF08F0BAEF08F0010E216E010E9D
:101170009CEC09F0F2A6BFEF08F0C1EF08F0DCEF3D
:1011800008F0F2A0C6EF08F0C8EF08F0DCEF08F0B6
:1011900081ACCDEF08F0CFEF08F0DCEF08F02004D1
:1011A000D8A4D5EF08F0D7EF08F0DCEF08F0000E78
:1011B000206E000E8FEC09F0F2A6E1EF08F0E3EFED
:1011C00008F0FEEF08F0F2A0E8EF08F0EAEF08F010
:1011D000FEEF08F081BCEFEF08F0F1EF08F0FEEF52
:1011E00008F02050D8A4F7EF08F0F9EF08F0FEEF70
:1011F00008F0010E206E010E8FEC09F0F2A603EF4D
:1012000009F005EF09F020EF09F0F2A00AEF09F06C
:101210000CEF09F020EF09F081AE11EF09F013EFA8
:1012200009F020EF09F01F04D8A419EF09F01BEF13
:1012300009F020EF09F0000E1F6E000E82EC09F09D
:10124000F2A625EF09F027EF09F042EF09F0F2A02E
:101250002CEF09F02EEF09F042EF09F081BE33EFD9
:1012600009F035EF09F042EF09F01F50D8A43BEF29
:1012700009F03DEF09F042EF09F0010E1F6E010E7B
:1012800082EC09F0F2AA47EF09F049EF09F052EFBA
:1012900009F0F2A44EEF09F050EF09F052EF09F017
:1012A000BCEC09F042921100E20EF66E120EF76EDF
:1012B000000EF86E00EE01F010EE22F00900F5CFFE
:1012C000EEFFE550E150FAE100EE23F01E0EEE6A6B
:1012D000E806FDE142904292000EF86E0001B6EF82
:1012E00009F0800F810F820F830F840F890F8A0FFF
:1012F0008B0F8C0F8D0F920F930F940F950F960FEE
:1013000001010101416EF2904150D8A48AEF09F029
:101310008CEF09F08EEF09F08EEF09F01200416EAC
:10132000F2904150D8A497EF09F099EF09F09BEFA4
:1013300009F09BEF09F01200416EF2904150D8A4E1
:10134000A4EF09F0A6EF09F0A8EF09F0A8EF09F063
:101350001200416EF2904150D8A4B1EF09F0B3EF02
:1013600009F0B5EF09F0B5EF09F01200C2EC09F091
:10137000B8EF09F007EF00F0F2942450D76E23C0C5
:10138000D6FF1200CEEC09F0CDEC09F01200F0927D
:0E1390001200F0901200F292120012001200F1
:020000040030CA
:0E000000FF02091EFF8181FF0FC00FE00F40BD
:00000001FF
